{
  "contractName": "PoolSaleToken",
  "abi": [
    {
      "inputs": [
        {
          "internalType": "address",
          "name": "tokenSale_",
          "type": "address"
        },
        {
          "internalType": "address",
          "name": "tokenBase_",
          "type": "address"
        },
        {
          "internalType": "uint256",
          "name": "totalSale_",
          "type": "uint256"
        },
        {
          "internalType": "uint256",
          "name": "saleRate_",
          "type": "uint256"
        },
        {
          "internalType": "uint256",
          "name": "baseRate_",
          "type": "uint256"
        },
        {
          "internalType": "uint256",
          "name": "maxCap_",
          "type": "uint256"
        },
        {
          "internalType": "uint256",
          "name": "minCap_",
          "type": "uint256"
        }
      ],
      "name": "createTokenSale",
      "outputs": [],
      "stateMutability": "nonpayable",
      "type": "function"
    },
    {
      "inputs": [],
      "name": "tokenSaleInfo",
      "outputs": [
        {
          "components": [
            {
              "internalType": "address",
              "name": "tokenSale",
              "type": "address"
            },
            {
              "internalType": "address",
              "name": "tokenBase",
              "type": "address"
            },
            {
              "internalType": "uint256",
              "name": "totalSale",
              "type": "uint256"
            },
            {
              "internalType": "uint256",
              "name": "totalSold",
              "type": "uint256"
            },
            {
              "internalType": "uint256",
              "name": "saleRate",
              "type": "uint256"
            },
            {
              "internalType": "uint256",
              "name": "baseRate",
              "type": "uint256"
            },
            {
              "internalType": "uint256",
              "name": "maxCap",
              "type": "uint256"
            },
            {
              "internalType": "uint256",
              "name": "minCap",
              "type": "uint256"
            },
            {
              "internalType": "uint256",
              "name": "tokenId",
              "type": "uint256"
            },
            {
              "internalType": "bool",
              "name": "isActive",
              "type": "bool"
            }
          ],
          "internalType": "struct PoolSaleToken.TokenSale[]",
          "name": "",
          "type": "tuple[]"
        }
      ],
      "stateMutability": "view",
      "type": "function",
      "constant": true
    },
    {
      "inputs": [
        {
          "internalType": "uint256",
          "name": "tokenId",
          "type": "uint256"
        }
      ],
      "name": "getOwnerOfTokenSale",
      "outputs": [
        {
          "internalType": "address",
          "name": "",
          "type": "address"
        }
      ],
      "stateMutability": "view",
      "type": "function",
      "constant": true
    },
    {
      "inputs": [
        {
          "internalType": "uint256",
          "name": "tokenSaleId",
          "type": "uint256"
        }
      ],
      "name": "getTokenSaleOfId",
      "outputs": [
        {
          "components": [
            {
              "internalType": "address",
              "name": "tokenSale",
              "type": "address"
            },
            {
              "internalType": "address",
              "name": "tokenBase",
              "type": "address"
            },
            {
              "internalType": "uint256",
              "name": "totalSale",
              "type": "uint256"
            },
            {
              "internalType": "uint256",
              "name": "totalSold",
              "type": "uint256"
            },
            {
              "internalType": "uint256",
              "name": "saleRate",
              "type": "uint256"
            },
            {
              "internalType": "uint256",
              "name": "baseRate",
              "type": "uint256"
            },
            {
              "internalType": "uint256",
              "name": "maxCap",
              "type": "uint256"
            },
            {
              "internalType": "uint256",
              "name": "minCap",
              "type": "uint256"
            },
            {
              "internalType": "uint256",
              "name": "tokenId",
              "type": "uint256"
            },
            {
              "internalType": "bool",
              "name": "isActive",
              "type": "bool"
            }
          ],
          "internalType": "struct PoolSaleToken.TokenSale",
          "name": "",
          "type": "tuple"
        }
      ],
      "stateMutability": "view",
      "type": "function",
      "constant": true
    },
    {
      "inputs": [
        {
          "internalType": "uint256",
          "name": "tokenId",
          "type": "uint256"
        },
        {
          "internalType": "uint256",
          "name": "baseAmount",
          "type": "uint256"
        }
      ],
      "name": "buySaleToken",
      "outputs": [],
      "stateMutability": "nonpayable",
      "type": "function"
    }
  ],
  "bytecode": "0x608060405234801561001057600080fd5b506117b3806100206000396000f3fe608060405234801561001057600080fd5b50600436106100575760003560e01c80630a1c4b021461005c5780634a57991c1461008c578063849c2ae1146100a8578063a8153937146100c4578063e7739208146100e2575b600080fd5b61007660048036038101906100719190610c8b565b610112565b6040516100839190610cf9565b60405180910390f35b6100a660048036038101906100a19190610d40565b61014e565b005b6100c260048036038101906100bd9190610de2565b610364565b005b6100cc61061a565b6040516100d99190610fd7565b60405180910390f35b6100fc60048036038101906100f79190610c8b565b610787565b60405161010991906110c5565b60405180910390f35b600080600083815260200190815260200160002060009054906101000a900473ffffffffffffffffffffffffffffffffffffffff169050919050565b60016040518061014001604052808973ffffffffffffffffffffffffffffffffffffffff1681526020018873ffffffffffffffffffffffffffffffffffffffff1681526020018781526020016000815260200186815260200185815260200184815260200183815260200160025481526020016001151581525090806001815401808255809150506001900390600052602060002090600a020160009091909190915060008201518160000160006101000a81548173ffffffffffffffffffffffffffffffffffffffff021916908373ffffffffffffffffffffffffffffffffffffffff16021790555060208201518160010160006101000a81548173ffffffffffffffffffffffffffffffffffffffff021916908373ffffffffffffffffffffffffffffffffffffffff16021790555060408201518160020155606082015181600301556080820151816004015560a0820151816005015560c0820151816006015560e0820151816007015561010082015181600801556101208201518160090160006101000a81548160ff02191690831515021790555050506102f16108d1565b600080600254815260200190815260200160002060006101000a81548173ffffffffffffffffffffffffffffffffffffffff021916908373ffffffffffffffffffffffffffffffffffffffff1602179055506002600081548092919061035690611110565b919050555050505050505050565b60006001838154811061037a57610379611159565b5b90600052602060002090600a02019050600081600501548260040154846103a19190611188565b6103ab9190611211565b9050600082600401548360050154836103c49190611188565b6103ce9190611211565b905060008360000160009054906101000a900473ffffffffffffffffffffffffffffffffffffffff16905060008460010160009054906101000a900473ffffffffffffffffffffffffffffffffffffffff169050600080600089815260200190815260200160002060009054906101000a900473ffffffffffffffffffffffffffffffffffffffff169050848373ffffffffffffffffffffffffffffffffffffffff1663dd62ed3e83306040518363ffffffff1660e01b8152600401610495929190611242565b602060405180830381865afa1580156104b2573d6000803e3d6000fd5b505050506040513d601f19601f820116820180604052508101906104d69190611280565b101580156104f7575084866003015487600201546104f491906112ad565b10155b610536576040517f08c379a000000000000000000000000000000000000000000000000000000000815260040161052d90611364565b60405180910390fd5b8560070154841015801561054e575085600601548411155b61058d576040517f08c379a0000000000000000000000000000000000000000000000000000000008152600401610584906113d0565b60405180910390fd5b6105c16105986108d1565b82868573ffffffffffffffffffffffffffffffffffffffff166108d9909392919063ffffffff16565b6105f5816105cd6108d1565b878673ffffffffffffffffffffffffffffffffffffffff166108d9909392919063ffffffff16565b8486600301600082825461060991906113f0565b925050819055505050505050505050565b60606001805480602002602001604051908101604052809291908181526020016000905b8282101561077e57838290600052602060002090600a0201604051806101400160405290816000820160009054906101000a900473ffffffffffffffffffffffffffffffffffffffff1673ffffffffffffffffffffffffffffffffffffffff1673ffffffffffffffffffffffffffffffffffffffff1681526020016001820160009054906101000a900473ffffffffffffffffffffffffffffffffffffffff1673ffffffffffffffffffffffffffffffffffffffff1673ffffffffffffffffffffffffffffffffffffffff168152602001600282015481526020016003820154815260200160048201548152602001600582015481526020016006820154815260200160078201548152602001600882015481526020016009820160009054906101000a900460ff1615151515815250508152602001906001019061063e565b50505050905090565b61078f610bcf565b600182815481106107a3576107a2611159565b5b90600052602060002090600a0201604051806101400160405290816000820160009054906101000a900473ffffffffffffffffffffffffffffffffffffffff1673ffffffffffffffffffffffffffffffffffffffff1673ffffffffffffffffffffffffffffffffffffffff1681526020016001820160009054906101000a900473ffffffffffffffffffffffffffffffffffffffff1673ffffffffffffffffffffffffffffffffffffffff1673ffffffffffffffffffffffffffffffffffffffff168152602001600282015481526020016003820154815260200160048201548152602001600582015481526020016006820154815260200160078201548152602001600882015481526020016009820160009054906101000a900460ff1615151515815250509050919050565b600033905090565b61095c846323b872dd60e01b8585856040516024016108fa93929190611455565b604051602081830303815290604052907bffffffffffffffffffffffffffffffffffffffffffffffffffffffff19166020820180517bffffffffffffffffffffffffffffffffffffffffffffffffffffffff8381831617835250505050610962565b50505050565b60006109c4826040518060400160405280602081526020017f5361666545524332303a206c6f772d6c6576656c2063616c6c206661696c65648152508573ffffffffffffffffffffffffffffffffffffffff16610a299092919063ffffffff16565b9050600081511115610a2457808060200190518101906109e491906114b8565b610a23576040517f08c379a0000000000000000000000000000000000000000000000000000000008152600401610a1a90611557565b60405180910390fd5b5b505050565b6060610a388484600085610a41565b90509392505050565b606082471015610a86576040517f08c379a0000000000000000000000000000000000000000000000000000000008152600401610a7d906115e9565b60405180910390fd5b610a8f85610b55565b610ace576040517f08c379a0000000000000000000000000000000000000000000000000000000008152600401610ac590611655565b60405180910390fd5b6000808673ffffffffffffffffffffffffffffffffffffffff168587604051610af791906116ef565b60006040518083038185875af1925050503d8060008114610b34576040519150601f19603f3d011682016040523d82523d6000602084013e610b39565b606091505b5091509150610b49828286610b68565b92505050949350505050565b600080823b905060008111915050919050565b60608315610b7857829050610bc8565b600083511115610b8b5782518084602001fd5b816040517f08c379a0000000000000000000000000000000000000000000000000000000008152600401610bbf919061175b565b60405180910390fd5b9392505050565b604051806101400160405280600073ffffffffffffffffffffffffffffffffffffffff168152602001600073ffffffffffffffffffffffffffffffffffffffff168152602001600081526020016000815260200160008152602001600081526020016000815260200160008152602001600081526020016000151581525090565b600080fd5b6000819050919050565b610c6881610c55565b8114610c7357600080fd5b50565b600081359050610c8581610c5f565b92915050565b600060208284031215610ca157610ca0610c50565b5b6000610caf84828501610c76565b91505092915050565b600073ffffffffffffffffffffffffffffffffffffffff82169050919050565b6000610ce382610cb8565b9050919050565b610cf381610cd8565b82525050565b6000602082019050610d0e6000830184610cea565b92915050565b610d1d81610cd8565b8114610d2857600080fd5b50565b600081359050610d3a81610d14565b92915050565b600080600080600080600060e0888a031215610d5f57610d5e610c50565b5b6000610d6d8a828b01610d2b565b9750506020610d7e8a828b01610d2b565b9650506040610d8f8a828b01610c76565b9550506060610da08a828b01610c76565b9450506080610db18a828b01610c76565b93505060a0610dc28a828b01610c76565b92505060c0610dd38a828b01610c76565b91505092959891949750929550565b60008060408385031215610df957610df8610c50565b5b6000610e0785828601610c76565b9250506020610e1885828601610c76565b9150509250929050565b600081519050919050565b600082825260208201905092915050565b6000819050602082019050919050565b610e5781610cd8565b82525050565b610e6681610c55565b82525050565b60008115159050919050565b610e8181610e6c565b82525050565b61014082016000820151610e9e6000850182610e4e565b506020820151610eb16020850182610e4e565b506040820151610ec46040850182610e5d565b506060820151610ed76060850182610e5d565b506080820151610eea6080850182610e5d565b5060a0820151610efd60a0850182610e5d565b5060c0820151610f1060c0850182610e5d565b5060e0820151610f2360e0850182610e5d565b50610100820151610f38610100850182610e5d565b50610120820151610f4d610120850182610e78565b50505050565b6000610f5f8383610e87565b6101408301905092915050565b6000602082019050919050565b6000610f8482610e22565b610f8e8185610e2d565b9350610f9983610e3e565b8060005b83811015610fca578151610fb18882610f53565b9750610fbc83610f6c565b925050600181019050610f9d565b5085935050505092915050565b60006020820190508181036000830152610ff18184610f79565b905092915050565b610140820160008201516110106000850182610e4e565b5060208201516110236020850182610e4e565b5060408201516110366040850182610e5d565b5060608201516110496060850182610e5d565b50608082015161105c6080850182610e5d565b5060a082015161106f60a0850182610e5d565b5060c082015161108260c0850182610e5d565b5060e082015161109560e0850182610e5d565b506101008201516110aa610100850182610e5d565b506101208201516110bf610120850182610e78565b50505050565b6000610140820190506110db6000830184610ff9565b92915050565b7f4e487b7100000000000000000000000000000000000000000000000000000000600052601160045260246000fd5b600061111b82610c55565b91507fffffffffffffffffffffffffffffffffffffffffffffffffffffffffffffffff82141561114e5761114d6110e1565b5b600182019050919050565b7f4e487b7100000000000000000000000000000000000000000000000000000000600052603260045260246000fd5b600061119382610c55565b915061119e83610c55565b9250817fffffffffffffffffffffffffffffffffffffffffffffffffffffffffffffffff04831182151516156111d7576111d66110e1565b5b828202905092915050565b7f4e487b7100000000000000000000000000000000000000000000000000000000600052601260045260246000fd5b600061121c82610c55565b915061122783610c55565b925082611237576112366111e2565b5b828204905092915050565b60006040820190506112576000830185610cea565b6112646020830184610cea565b9392505050565b60008151905061127a81610c5f565b92915050565b60006020828403121561129657611295610c50565b5b60006112a48482850161126b565b91505092915050565b60006112b882610c55565b91506112c383610c55565b9250828210156112d6576112d56110e1565b5b828203905092915050565b600082825260208201905092915050565b7f4e6f7420656e6f7567682062616c616e636520746f6b656e2073616c6520666f60008201527f7220726571756573740000000000000000000000000000000000000000000000602082015250565b600061134e6029836112e1565b9150611359826112f2565b604082019050919050565b6000602082019050818103600083015261137d81611341565b9050919050565b7f4572726f72204c696d6974206275790000000000000000000000000000000000600082015250565b60006113ba600f836112e1565b91506113c582611384565b602082019050919050565b600060208201905081810360008301526113e9816113ad565b9050919050565b60006113fb82610c55565b915061140683610c55565b9250827fffffffffffffffffffffffffffffffffffffffffffffffffffffffffffffffff0382111561143b5761143a6110e1565b5b828201905092915050565b61144f81610c55565b82525050565b600060608201905061146a6000830186610cea565b6114776020830185610cea565b6114846040830184611446565b949350505050565b61149581610e6c565b81146114a057600080fd5b50565b6000815190506114b28161148c565b92915050565b6000602082840312156114ce576114cd610c50565b5b60006114dc848285016114a3565b91505092915050565b7f5361666545524332303a204552433230206f7065726174696f6e20646964206e60008201527f6f74207375636365656400000000000000000000000000000000000000000000602082015250565b6000611541602a836112e1565b915061154c826114e5565b604082019050919050565b6000602082019050818103600083015261157081611534565b9050919050565b7f416464726573733a20696e73756666696369656e742062616c616e636520666f60008201527f722063616c6c0000000000000000000000000000000000000000000000000000602082015250565b60006115d36026836112e1565b91506115de82611577565b604082019050919050565b60006020820190508181036000830152611602816115c6565b9050919050565b7f416464726573733a2063616c6c20746f206e6f6e2d636f6e7472616374000000600082015250565b600061163f601d836112e1565b915061164a82611609565b602082019050919050565b6000602082019050818103600083015261166e81611632565b9050919050565b600081519050919050565b600081905092915050565b60005b838110156116a957808201518184015260208101905061168e565b838111156116b8576000848401525b50505050565b60006116c982611675565b6116d38185611680565b93506116e381856020860161168b565b80840191505092915050565b60006116fb82846116be565b915081905092915050565b600081519050919050565b6000601f19601f8301169050919050565b600061172d82611706565b61173781856112e1565b935061174781856020860161168b565b61175081611711565b840191505092915050565b600060208201905081810360008301526117758184611722565b90509291505056fea2646970667358221220e855a930e199786fa6f6638bf43dbb616624dd3b849b2720a702fc56235ade9764736f6c634300080a0033",
  "immutableReferences": {},
  "source": "// SPDX-License-Identifier: MIT\npragma solidity ^0.8.9;\n\nimport \"./TokenFactory.sol\";\nimport \"./Address.sol\";\nimport \"./SafeERC20.sol\";\nimport \"./IERC20.sol\";\nimport \"./Token.sol\";\nimport \"./Context.sol\";\n\n/**\n * @dev Smart Contract to handle Tokens Sale.\n */\ncontract PoolSaleToken is Context {\n    using SafeERC20 for IERC20Token;\n    // Token sale information\n    struct TokenSale {\n        address tokenSale;\n        address tokenBase;\n        uint256 totalSale;\n        uint256 totalSold;\n        uint256 saleRate;\n        uint256 baseRate;\n        uint256 maxCap;\n        uint256 minCap;\n        uint256 tokenId;\n        bool isActive;\n    }\n\n    // Mapping from token sale ID to owner address\n    mapping(uint256 => address) private _owners;\n\n    // List Token sale\n    TokenSale[] private _tokenSaleInfos;\n\n    // TokenSale length\n    uint256 private _tokenSaleLength;\n\n    /**\n     * @dev create new TokenSale for Pool\n     */\n\n    function createTokenSale(\n        address tokenSale_,\n        address tokenBase_,\n        uint256 totalSale_,\n        uint256 saleRate_,\n        uint256 baseRate_,\n        uint256 maxCap_,\n        uint256 minCap_\n    ) public virtual {\n        _tokenSaleInfos.push(\n            TokenSale({\n                tokenSale: tokenSale_,\n                tokenBase: tokenBase_,\n                totalSale: totalSale_,\n                totalSold: 0,\n                saleRate: saleRate_,\n                baseRate: baseRate_,\n                maxCap: maxCap_,\n                minCap: minCap_,\n                tokenId: _tokenSaleLength,\n                isActive: true\n            })\n        );\n        _owners[_tokenSaleLength] = _msgSender();\n        _tokenSaleLength++;\n    }\n\n    /**\n     *@dev Get list of Token sales\n     */\n    function tokenSaleInfo() public view virtual returns (TokenSale[] memory) {\n        return _tokenSaleInfos;\n    }\n\n    /**\n     * @dev Get owner of creator token sale\n     */\n\n    function getOwnerOfTokenSale(uint256 tokenId)\n        public\n        view\n        virtual\n        returns (address)\n    {\n        return _owners[tokenId];\n    }\n\n    /**\n     * @dev Get TokenSale info of Token Sale Id\n     */\n    function getTokenSaleOfId(uint256 tokenSaleId)\n        public\n        view\n        virtual\n        returns (TokenSale memory)\n    {\n        return _tokenSaleInfos[tokenSaleId];\n    }\n\n    /**\n     * @dev send base token to owner of tokensale\n     * @dev send sale token to buyer.\n     */\n\n    function buySaleToken(uint256 tokenId, uint256 baseAmount) public virtual {\n        TokenSale storage tokenSaleStruct = _tokenSaleInfos[tokenId];\n        uint256 tokenSaleRequest = (baseAmount * tokenSaleStruct.saleRate) /\n            tokenSaleStruct.baseRate;\n        uint256 tokenBaseExactly = (tokenSaleRequest *\n            tokenSaleStruct.baseRate) / tokenSaleStruct.saleRate;\n        IERC20Token saleToken = IERC20Token(tokenSaleStruct.tokenSale);\n        IERC20Token baseToken = IERC20Token(tokenSaleStruct.tokenBase);\n        address owner = _owners[tokenId];\n        require(\n            saleToken.allowance(owner, address(this)) >= tokenSaleRequest &&\n                (tokenSaleStruct.totalSale - tokenSaleStruct.totalSold) >=\n                tokenSaleRequest,\n            \"Not enough balance token sale for request\"\n        );\n        require(\n            tokenBaseExactly >= tokenSaleStruct.minCap &&\n                tokenBaseExactly <= tokenSaleStruct.maxCap,\n            \"Error Limit buy\"\n        );\n        /// sender must be approve baseToken for poolSaleToken before transfer.\n        baseToken.safeTransferFrom(_msgSender(), owner, tokenBaseExactly);\n        saleToken.safeTransferFrom(owner, _msgSender(), tokenSaleRequest);\n        tokenSaleStruct.totalSold += tokenSaleRequest;\n    }\n}\n",
  "sourcePath": "/Volumes/Data/dev/learn/kardiachain/bye-bye-world/truffle/contracts/PoolSaleToken.sol",
  "compiler": {
    "name": "solc",
    "version": "0.8.10+commit.fc410830.Emscripten.clang"
  },
  "schemaVersion": "3.4.3",
  "updatedAt": "2021-11-14T08:41:28.739Z",
  "networkType": "ethereum",
  "devdoc": {
    "details": "Smart Contract to handle Tokens Sale.",
    "kind": "dev",
    "methods": {
      "buySaleToken(uint256,uint256)": {
        "details": "send base token to owner of tokensalesend sale token to buyer."
      },
      "createTokenSale(address,address,uint256,uint256,uint256,uint256,uint256)": {
        "details": "create new TokenSale for Pool"
      },
      "getOwnerOfTokenSale(uint256)": {
        "details": "Get owner of creator token sale"
      },
      "getTokenSaleOfId(uint256)": {
        "details": "Get TokenSale info of Token Sale Id"
      },
      "tokenSaleInfo()": {
        "details": "Get list of Token sales"
      }
    },
    "version": 1
  },
  "userdoc": {
    "kind": "user",
    "methods": {},
    "version": 1
  }
}