{
  "contractName": "TokenFactory",
  "abi": [
    {
      "inputs": [
        {
          "internalType": "address",
          "name": "creator",
          "type": "address"
        }
      ],
      "name": "tokenOf",
      "outputs": [
        {
          "internalType": "address",
          "name": "",
          "type": "address"
        }
      ],
      "stateMutability": "view",
      "type": "function",
      "constant": true
    },
    {
      "inputs": [
        {
          "internalType": "address",
          "name": "token",
          "type": "address"
        }
      ],
      "name": "tokenUrl",
      "outputs": [
        {
          "internalType": "string",
          "name": "",
          "type": "string"
        }
      ],
      "stateMutability": "view",
      "type": "function",
      "constant": true
    },
    {
      "inputs": [
        {
          "internalType": "address",
          "name": "poolSaleToken",
          "type": "address"
        },
        {
          "internalType": "string",
          "name": "name_",
          "type": "string"
        },
        {
          "internalType": "string",
          "name": "symbol_",
          "type": "string"
        },
        {
          "internalType": "string",
          "name": "url_",
          "type": "string"
        },
        {
          "internalType": "uint8",
          "name": "decimal_",
          "type": "uint8"
        },
        {
          "internalType": "uint256",
          "name": "totalSupply_",
          "type": "uint256"
        }
      ],
      "name": "create",
      "outputs": [
        {
          "internalType": "address",
          "name": "",
          "type": "address"
        }
      ],
      "stateMutability": "nonpayable",
      "type": "function"
    },
    {
      "inputs": [
        {
          "internalType": "address",
          "name": "token",
          "type": "address"
        }
      ],
      "name": "informationOfToken",
      "outputs": [
        {
          "internalType": "string",
          "name": "name_",
          "type": "string"
        },
        {
          "internalType": "string",
          "name": "symbol_",
          "type": "string"
        },
        {
          "internalType": "uint8",
          "name": "decimal_",
          "type": "uint8"
        },
        {
          "internalType": "uint256",
          "name": "totalSupply_",
          "type": "uint256"
        },
        {
          "internalType": "string",
          "name": "url_",
          "type": "string"
        }
      ],
      "stateMutability": "view",
      "type": "function",
      "constant": true
    }
  ],
  "bytecode": "0x608060405234801561001057600080fd5b506128be806100206000396000f3fe60806040523480156200001157600080fd5b5060043610620000525760003560e01c8063390b4c1a146200005757806342ec38e2146200008d5780637f3a8fe914620000c3578063d654446c14620000fd575b600080fd5b6200007560048036038101906200006f91906200079d565b62000133565b60405162000084919062000873565b60405180910390f35b620000ab6004803603810190620000a591906200079d565b6200020c565b604051620000ba9190620008a8565b60405180910390f35b620000e16004803603810190620000db91906200079d565b62000274565b604051620000f4959493929190620008fe565b60405180910390f35b6200011b600480360381019062000115919062000b23565b62000537565b6040516200012a9190620008a8565b60405180910390f35b6060600160008373ffffffffffffffffffffffffffffffffffffffff1673ffffffffffffffffffffffffffffffffffffffff1681526020019081526020016000208054620001819062000c4b565b80601f0160208091040260200160405190810160405280929190818152602001828054620001af9062000c4b565b8015620002005780601f10620001d45761010080835404028352916020019162000200565b820191906000526020600020905b815481529060010190602001808311620001e257829003601f168201915b50505050509050919050565b60008060008373ffffffffffffffffffffffffffffffffffffffff1673ffffffffffffffffffffffffffffffffffffffff16815260200190815260200160002060009054906101000a900473ffffffffffffffffffffffffffffffffffffffff169050919050565b606080600080606060008690508073ffffffffffffffffffffffffffffffffffffffff166306fdde036040518163ffffffff1660e01b8152600401600060405180830381865afa158015620002cd573d6000803e3d6000fd5b505050506040513d6000823e3d601f19601f82011682018060405250810190620002f8919062000cff565b95508073ffffffffffffffffffffffffffffffffffffffff166395d89b416040518163ffffffff1660e01b8152600401600060405180830381865afa15801562000346573d6000803e3d6000fd5b505050506040513d6000823e3d601f19601f8201168201806040525081019062000371919062000cff565b94508073ffffffffffffffffffffffffffffffffffffffff1663313ce5676040518163ffffffff1660e01b8152600401602060405180830381865afa158015620003bf573d6000803e3d6000fd5b505050506040513d601f19601f82011682018060405250810190620003e5919062000d67565b93508073ffffffffffffffffffffffffffffffffffffffff166318160ddd6040518163ffffffff1660e01b8152600401602060405180830381865afa15801562000433573d6000803e3d6000fd5b505050506040513d601f19601f8201168201806040525081019062000459919062000db0565b9250600160008873ffffffffffffffffffffffffffffffffffffffff1673ffffffffffffffffffffffffffffffffffffffff1681526020019081526020016000208054620004a79062000c4b565b80601f0160208091040260200160405190810160405280929190818152602001828054620004d59062000c4b565b8015620005265780601f10620004fa5761010080835404028352916020019162000526565b820191906000526020600020905b8154815290600101906020018083116200050857829003601f168201915b505050505091505091939590929450565b6000803388888887876040516200054e9062000666565b6200055f9695949392919062000de2565b604051809103906000f0801580156200057c573d6000803e3d6000fd5b5090506000819050806000803373ffffffffffffffffffffffffffffffffffffffff1673ffffffffffffffffffffffffffffffffffffffff16815260200190815260200160002060006101000a81548173ffffffffffffffffffffffffffffffffffffffff021916908373ffffffffffffffffffffffffffffffffffffffff16021790555085600160008373ffffffffffffffffffffffffffffffffffffffff1673ffffffffffffffffffffffffffffffffffffffff16815260200190815260200160002090805190602001906200065692919062000674565b5080925050509695505050505050565b611a2b8062000e5e83390190565b828054620006829062000c4b565b90600052602060002090601f016020900481019282620006a65760008555620006f2565b82601f10620006c157805160ff1916838001178555620006f2565b82800160010185558215620006f2579182015b82811115620006f1578251825591602001919060010190620006d4565b5b50905062000701919062000705565b5090565b5b808211156200072057600081600090555060010162000706565b5090565b6000604051905090565b600080fd5b600080fd5b600073ffffffffffffffffffffffffffffffffffffffff82169050919050565b6000620007658262000738565b9050919050565b620007778162000758565b81146200078357600080fd5b50565b60008135905062000797816200076c565b92915050565b600060208284031215620007b657620007b56200072e565b5b6000620007c68482850162000786565b91505092915050565b600081519050919050565b600082825260208201905092915050565b60005b838110156200080b578082015181840152602081019050620007ee565b838111156200081b576000848401525b50505050565b6000601f19601f8301169050919050565b60006200083f82620007cf565b6200084b8185620007da565b93506200085d818560208601620007eb565b620008688162000821565b840191505092915050565b600060208201905081810360008301526200088f818462000832565b905092915050565b620008a28162000758565b82525050565b6000602082019050620008bf600083018462000897565b92915050565b600060ff82169050919050565b620008dd81620008c5565b82525050565b6000819050919050565b620008f881620008e3565b82525050565b600060a08201905081810360008301526200091a818862000832565b9050818103602083015262000930818762000832565b9050620009416040830186620008d2565b620009506060830185620008ed565b818103608083015262000964818462000832565b90509695505050505050565b600080fd5b600080fd5b7f4e487b7100000000000000000000000000000000000000000000000000000000600052604160045260246000fd5b620009b48262000821565b810181811067ffffffffffffffff82111715620009d657620009d56200097a565b5b80604052505050565b6000620009eb62000724565b9050620009f98282620009a9565b919050565b600067ffffffffffffffff82111562000a1c5762000a1b6200097a565b5b62000a278262000821565b9050602081019050919050565b82818337600083830152505050565b600062000a5a62000a5484620009fe565b620009df565b90508281526020810184848401111562000a795762000a7862000975565b5b62000a8684828562000a34565b509392505050565b600082601f83011262000aa65762000aa562000970565b5b813562000ab884826020860162000a43565b91505092915050565b62000acc81620008c5565b811462000ad857600080fd5b50565b60008135905062000aec8162000ac1565b92915050565b62000afd81620008e3565b811462000b0957600080fd5b50565b60008135905062000b1d8162000af2565b92915050565b60008060008060008060c0878903121562000b435762000b426200072e565b5b600062000b5389828a0162000786565b965050602087013567ffffffffffffffff81111562000b775762000b7662000733565b5b62000b8589828a0162000a8e565b955050604087013567ffffffffffffffff81111562000ba95762000ba862000733565b5b62000bb789828a0162000a8e565b945050606087013567ffffffffffffffff81111562000bdb5762000bda62000733565b5b62000be989828a0162000a8e565b935050608062000bfc89828a0162000adb565b92505060a062000c0f89828a0162000b0c565b9150509295509295509295565b7f4e487b7100000000000000000000000000000000000000000000000000000000600052602260045260246000fd5b6000600282049050600182168062000c6457607f821691505b6020821081141562000c7b5762000c7a62000c1c565b5b50919050565b600062000c9862000c9284620009fe565b620009df565b90508281526020810184848401111562000cb75762000cb662000975565b5b62000cc4848285620007eb565b509392505050565b600082601f83011262000ce45762000ce362000970565b5b815162000cf684826020860162000c81565b91505092915050565b60006020828403121562000d185762000d176200072e565b5b600082015167ffffffffffffffff81111562000d395762000d3862000733565b5b62000d478482850162000ccc565b91505092915050565b60008151905062000d618162000ac1565b92915050565b60006020828403121562000d805762000d7f6200072e565b5b600062000d908482850162000d50565b91505092915050565b60008151905062000daa8162000af2565b92915050565b60006020828403121562000dc95762000dc86200072e565b5b600062000dd98482850162000d99565b91505092915050565b600060c08201905062000df9600083018962000897565b62000e08602083018862000897565b818103604083015262000e1c818762000832565b9050818103606083015262000e32818662000832565b905062000e436080830185620008d2565b62000e5260a0830184620008ed565b97965050505050505056fe60806040523480156200001157600080fd5b5060405162001a2b38038062001a2b8339818101604052810190620000379190620004c7565b85600260006101000a81548173ffffffffffffffffffffffffffffffffffffffff021916908373ffffffffffffffffffffffffffffffffffffffff1602179055508360049080519060200190620000909291906200019c565b508260059080519060200190620000a99291906200019c565b5081600660006101000a81548160ff021916908360ff16021790555080600381905550806000808873ffffffffffffffffffffffffffffffffffffffff1673ffffffffffffffffffffffffffffffffffffffff1681526020019081526020016000208190555080600160008873ffffffffffffffffffffffffffffffffffffffff1673ffffffffffffffffffffffffffffffffffffffff16815260200190815260200160002060008773ffffffffffffffffffffffffffffffffffffffff1673ffffffffffffffffffffffffffffffffffffffff1681526020019081526020016000208190555050505050505062000606565b828054620001aa90620005d0565b90600052602060002090601f016020900481019282620001ce57600085556200021a565b82601f10620001e957805160ff19168380011785556200021a565b828001600101855582156200021a579182015b8281111562000219578251825591602001919060010190620001fc565b5b5090506200022991906200022d565b5090565b5b80821115620002485760008160009055506001016200022e565b5090565b6000604051905090565b600080fd5b600080fd5b600073ffffffffffffffffffffffffffffffffffffffff82169050919050565b60006200028d8262000260565b9050919050565b6200029f8162000280565b8114620002ab57600080fd5b50565b600081519050620002bf8162000294565b92915050565b600080fd5b600080fd5b6000601f19601f8301169050919050565b7f4e487b7100000000000000000000000000000000000000000000000000000000600052604160045260246000fd5b6200031a82620002cf565b810181811067ffffffffffffffff821117156200033c576200033b620002e0565b5b80604052505050565b6000620003516200024c565b90506200035f82826200030f565b919050565b600067ffffffffffffffff821115620003825762000381620002e0565b5b6200038d82620002cf565b9050602081019050919050565b60005b83811015620003ba5780820151818401526020810190506200039d565b83811115620003ca576000848401525b50505050565b6000620003e7620003e18462000364565b62000345565b905082815260208101848484011115620004065762000405620002ca565b5b620004138482856200039a565b509392505050565b600082601f830112620004335762000432620002c5565b5b815162000445848260208601620003d0565b91505092915050565b600060ff82169050919050565b62000466816200044e565b81146200047257600080fd5b50565b60008151905062000486816200045b565b92915050565b6000819050919050565b620004a1816200048c565b8114620004ad57600080fd5b50565b600081519050620004c18162000496565b92915050565b60008060008060008060c08789031215620004e757620004e662000256565b5b6000620004f789828a01620002ae565b96505060206200050a89828a01620002ae565b955050604087015167ffffffffffffffff8111156200052e576200052d6200025b565b5b6200053c89828a016200041b565b945050606087015167ffffffffffffffff81111562000560576200055f6200025b565b5b6200056e89828a016200041b565b93505060806200058189828a0162000475565b92505060a06200059489828a01620004b0565b9150509295509295509295565b7f4e487b7100000000000000000000000000000000000000000000000000000000600052602260045260246000fd5b60006002820490506001821680620005e957607f821691505b602082108114156200060057620005ff620005a1565b5b50919050565b61141580620006166000396000f3fe608060405234801561001057600080fd5b50600436106100b45760003560e01c80633950935111610071578063395093511461019157806370a08231146101c157806395d89b41146101f1578063a457c2d71461020f578063a9059cbb1461023f578063dd62ed3e1461026f576100b4565b806302d05d3f146100b957806306fdde03146100d7578063095ea7b3146100f557806318160ddd1461012557806323b872dd14610143578063313ce56714610173575b600080fd5b6100c161029f565b6040516100ce9190610c27565b60405180910390f35b6100df6102c9565b6040516100ec9190610cdb565b60405180910390f35b61010f600480360381019061010a9190610d64565b61035b565b60405161011c9190610dbf565b60405180910390f35b61012d610379565b60405161013a9190610de9565b60405180910390f35b61015d60048036038101906101589190610e04565b610383565b60405161016a9190610dbf565b60405180910390f35b61017b61047b565b6040516101889190610e73565b60405180910390f35b6101ab60048036038101906101a69190610d64565b610492565b6040516101b89190610dbf565b60405180910390f35b6101db60048036038101906101d69190610e8e565b61053e565b6040516101e89190610de9565b60405180910390f35b6101f9610586565b6040516102069190610cdb565b60405180910390f35b61022960048036038101906102249190610d64565b610618565b6040516102369190610dbf565b60405180910390f35b61025960048036038101906102549190610d64565b610703565b6040516102669190610dbf565b60405180910390f35b61028960048036038101906102849190610ebb565b610721565b6040516102969190610de9565b60405180910390f35b6000600260009054906101000a900473ffffffffffffffffffffffffffffffffffffffff16905090565b6060600480546102d890610f2a565b80601f016020809104026020016040519081016040528092919081815260200182805461030490610f2a565b80156103515780601f1061032657610100808354040283529160200191610351565b820191906000526020600020905b81548152906001019060200180831161033457829003601f168201915b5050505050905090565b600061036f6103686107a8565b84846107b0565b6001905092915050565b6000600354905090565b600061039084848461097b565b6000600160008673ffffffffffffffffffffffffffffffffffffffff1673ffffffffffffffffffffffffffffffffffffffff16815260200190815260200160002060006103db6107a8565b73ffffffffffffffffffffffffffffffffffffffff1673ffffffffffffffffffffffffffffffffffffffff1681526020019081526020016000205490508281101561045b576040517f08c379a000000000000000000000000000000000000000000000000000000000815260040161045290610fce565b60405180910390fd5b61046f856104676107a8565b8584036107b0565b60019150509392505050565b6000600660009054906101000a900460ff16905090565b600061053461049f6107a8565b8484600160006104ad6107a8565b73ffffffffffffffffffffffffffffffffffffffff1673ffffffffffffffffffffffffffffffffffffffff16815260200190815260200160002060008873ffffffffffffffffffffffffffffffffffffffff1673ffffffffffffffffffffffffffffffffffffffff1681526020019081526020016000205461052f919061101d565b6107b0565b6001905092915050565b60008060008373ffffffffffffffffffffffffffffffffffffffff1673ffffffffffffffffffffffffffffffffffffffff168152602001908152602001600020549050919050565b60606005805461059590610f2a565b80601f01602080910402602001604051908101604052809291908181526020018280546105c190610f2a565b801561060e5780601f106105e35761010080835404028352916020019161060e565b820191906000526020600020905b8154815290600101906020018083116105f157829003601f168201915b5050505050905090565b600080600160006106276107a8565b73ffffffffffffffffffffffffffffffffffffffff1673ffffffffffffffffffffffffffffffffffffffff16815260200190815260200160002060008573ffffffffffffffffffffffffffffffffffffffff1673ffffffffffffffffffffffffffffffffffffffff168152602001908152602001600020549050828110156106e4576040517f08c379a00000000000000000000000000000000000000000000000000000000081526004016106db906110e5565b60405180910390fd5b6106f86106ef6107a8565b858584036107b0565b600191505092915050565b60006107176107106107a8565b848461097b565b6001905092915050565b6000600160008473ffffffffffffffffffffffffffffffffffffffff1673ffffffffffffffffffffffffffffffffffffffff16815260200190815260200160002060008373ffffffffffffffffffffffffffffffffffffffff1673ffffffffffffffffffffffffffffffffffffffff16815260200190815260200160002054905092915050565b600033905090565b600073ffffffffffffffffffffffffffffffffffffffff168373ffffffffffffffffffffffffffffffffffffffff161415610820576040517f08c379a000000000000000000000000000000000000000000000000000000000815260040161081790611177565b60405180910390fd5b600073ffffffffffffffffffffffffffffffffffffffff168273ffffffffffffffffffffffffffffffffffffffff161415610890576040517f08c379a000000000000000000000000000000000000000000000000000000000815260040161088790611209565b60405180910390fd5b80600160008573ffffffffffffffffffffffffffffffffffffffff1673ffffffffffffffffffffffffffffffffffffffff16815260200190815260200160002060008473ffffffffffffffffffffffffffffffffffffffff1673ffffffffffffffffffffffffffffffffffffffff168152602001908152602001600020819055508173ffffffffffffffffffffffffffffffffffffffff168373ffffffffffffffffffffffffffffffffffffffff167f8c5be1e5ebec7d5bd14f71427d1e84f3dd0314c0f7b2291e5b200ac8c7c3b9258360405161096e9190610de9565b60405180910390a3505050565b600073ffffffffffffffffffffffffffffffffffffffff168373ffffffffffffffffffffffffffffffffffffffff1614156109eb576040517f08c379a00000000000000000000000000000000000000000000000000000000081526004016109e29061129b565b60405180910390fd5b600073ffffffffffffffffffffffffffffffffffffffff168273ffffffffffffffffffffffffffffffffffffffff161415610a5b576040517f08c379a0000000000000000000000000000000000000000000000000000000008152600401610a529061132d565b60405180910390fd5b60008060008573ffffffffffffffffffffffffffffffffffffffff1673ffffffffffffffffffffffffffffffffffffffff16815260200190815260200160002054905081811015610ae1576040517f08c379a0000000000000000000000000000000000000000000000000000000008152600401610ad8906113bf565b60405180910390fd5b8181036000808673ffffffffffffffffffffffffffffffffffffffff1673ffffffffffffffffffffffffffffffffffffffff16815260200190815260200160002081905550816000808573ffffffffffffffffffffffffffffffffffffffff1673ffffffffffffffffffffffffffffffffffffffff1681526020019081526020016000206000828254610b74919061101d565b925050819055508273ffffffffffffffffffffffffffffffffffffffff168473ffffffffffffffffffffffffffffffffffffffff167fddf252ad1be2c89b69c2b068fc378daa952ba7f163c4a11628f55a4df523b3ef84604051610bd89190610de9565b60405180910390a350505050565b600073ffffffffffffffffffffffffffffffffffffffff82169050919050565b6000610c1182610be6565b9050919050565b610c2181610c06565b82525050565b6000602082019050610c3c6000830184610c18565b92915050565b600081519050919050565b600082825260208201905092915050565b60005b83811015610c7c578082015181840152602081019050610c61565b83811115610c8b576000848401525b50505050565b6000601f19601f8301169050919050565b6000610cad82610c42565b610cb78185610c4d565b9350610cc7818560208601610c5e565b610cd081610c91565b840191505092915050565b60006020820190508181036000830152610cf58184610ca2565b905092915050565b600080fd5b610d0b81610c06565b8114610d1657600080fd5b50565b600081359050610d2881610d02565b92915050565b6000819050919050565b610d4181610d2e565b8114610d4c57600080fd5b50565b600081359050610d5e81610d38565b92915050565b60008060408385031215610d7b57610d7a610cfd565b5b6000610d8985828601610d19565b9250506020610d9a85828601610d4f565b9150509250929050565b60008115159050919050565b610db981610da4565b82525050565b6000602082019050610dd46000830184610db0565b92915050565b610de381610d2e565b82525050565b6000602082019050610dfe6000830184610dda565b92915050565b600080600060608486031215610e1d57610e1c610cfd565b5b6000610e2b86828701610d19565b9350506020610e3c86828701610d19565b9250506040610e4d86828701610d4f565b9150509250925092565b600060ff82169050919050565b610e6d81610e57565b82525050565b6000602082019050610e886000830184610e64565b92915050565b600060208284031215610ea457610ea3610cfd565b5b6000610eb284828501610d19565b91505092915050565b60008060408385031215610ed257610ed1610cfd565b5b6000610ee085828601610d19565b9250506020610ef185828601610d19565b9150509250929050565b7f4e487b7100000000000000000000000000000000000000000000000000000000600052602260045260246000fd5b60006002820490506001821680610f4257607f821691505b60208210811415610f5657610f55610efb565b5b50919050565b7f45524332303a207472616e7366657220616d6f756e742065786365656473206160008201527f6c6c6f77616e6365000000000000000000000000000000000000000000000000602082015250565b6000610fb8602883610c4d565b9150610fc382610f5c565b604082019050919050565b60006020820190508181036000830152610fe781610fab565b9050919050565b7f4e487b7100000000000000000000000000000000000000000000000000000000600052601160045260246000fd5b600061102882610d2e565b915061103383610d2e565b9250827fffffffffffffffffffffffffffffffffffffffffffffffffffffffffffffffff0382111561106857611067610fee565b5b828201905092915050565b7f45524332303a2064656372656173656420616c6c6f77616e63652062656c6f7760008201527f207a65726f000000000000000000000000000000000000000000000000000000602082015250565b60006110cf602583610c4d565b91506110da82611073565b604082019050919050565b600060208201905081810360008301526110fe816110c2565b9050919050565b7f45524332303a20617070726f76652066726f6d20746865207a65726f2061646460008201527f7265737300000000000000000000000000000000000000000000000000000000602082015250565b6000611161602483610c4d565b915061116c82611105565b604082019050919050565b6000602082019050818103600083015261119081611154565b9050919050565b7f45524332303a20617070726f766520746f20746865207a65726f20616464726560008201527f7373000000000000000000000000000000000000000000000000000000000000602082015250565b60006111f3602283610c4d565b91506111fe82611197565b604082019050919050565b60006020820190508181036000830152611222816111e6565b9050919050565b7f45524332303a207472616e736665722066726f6d20746865207a65726f20616460008201527f6472657373000000000000000000000000000000000000000000000000000000602082015250565b6000611285602583610c4d565b915061129082611229565b604082019050919050565b600060208201905081810360008301526112b481611278565b9050919050565b7f45524332303a207472616e7366657220746f20746865207a65726f206164647260008201527f6573730000000000000000000000000000000000000000000000000000000000602082015250565b6000611317602383610c4d565b9150611322826112bb565b604082019050919050565b600060208201905081810360008301526113468161130a565b9050919050565b7f45524332303a207472616e7366657220616d6f756e742065786365656473206260008201527f616c616e63650000000000000000000000000000000000000000000000000000602082015250565b60006113a9602683610c4d565b91506113b48261134d565b604082019050919050565b600060208201905081810360008301526113d88161139c565b905091905056fea26469706673582212209f8f94dfa404a13cd2258c5b1cf51b93f8c0a0754b93f3054e287107cd006b8a64736f6c634300080a0033a264697066735822122096a3d3fb082fd60516e3bed10963919b305699b2bc5e6dfdd17c584f89c3d6a464736f6c634300080a0033",
  "immutableReferences": {},
  "source": "/// SPDX-License-Identifier: MIT\n/**\n *@dev From version 0.8.0 solidity Integrated SafeMath\n */\npragma solidity ^0.8.10;\n\nimport \"./IERC20.sol\";\nimport \"./Token.sol\";\nimport \"./Context.sol\";\n\n/**\n * @dev Contract handle create a new Token.\n */\n\ncontract TokenFactory is Context {\n    // Mapping from creator to token address.\n    mapping(address => address) private _tokens;\n\n    // Mapping from token to url.\n    mapping(address => string) private _urls;\n\n    /**\n     * @dev Return token address latest of creator.\n     */\n    function tokenOf(address creator) public view virtual returns (address) {\n        return _tokens[creator];\n    }\n\n    function tokenUrl(address token)\n        public\n        view\n        virtual\n        returns (string memory)\n    {\n        return _urls[token];\n    }\n\n    /**\n     *@dev Create New Token.\n     */\n    function create(\n        address poolSaleToken,\n        string memory name_,\n        string memory symbol_,\n        string memory url_,\n        uint8 decimal_,\n        uint256 totalSupply_\n    ) public virtual returns (address) {\n        Token newToken = new Token(\n            msg.sender,\n            poolSaleToken,\n            name_,\n            symbol_,\n            decimal_,\n            totalSupply_\n        );\n        address addressNewToken = address(newToken);\n        _tokens[msg.sender] = addressNewToken;\n        _urls[addressNewToken] = url_;\n        return addressNewToken;\n    }\n\n    /**\n     * @dev Return all information of token\n     */\n\n    function informationOfToken(address token)\n        public\n        view\n        virtual\n        returns (\n            string memory name_,\n            string memory symbol_,\n            uint8 decimal_,\n            uint256 totalSupply_,\n            string memory url_\n        )\n    {\n        IERC20Token tokenContract = IERC20Token(token);\n        name_ = tokenContract.name();\n        symbol_ = tokenContract.symbol();\n        decimal_ = tokenContract.decimals();\n        totalSupply_ = tokenContract.totalSupply();\n        url_ = _urls[token];\n    }\n}\n",
  "sourcePath": "/Volumes/Data/dev/learn/kardiachain/bye-bye-world/truffle/contracts/TokenFactory.sol",
  "compiler": {
    "name": "solc",
    "version": "0.8.10+commit.fc410830.Emscripten.clang"
  },
  "schemaVersion": "3.4.3",
  "updatedAt": "2021-11-14T08:41:27.910Z",
  "networkType": "ethereum",
  "devdoc": {
    "details": "Contract handle create a new Token.",
    "kind": "dev",
    "methods": {
      "create(address,string,string,string,uint8,uint256)": {
        "details": "Create New Token."
      },
      "informationOfToken(address)": {
        "details": "Return all information of token"
      },
      "tokenOf(address)": {
        "details": "Return token address latest of creator."
      }
    },
    "version": 1
  },
  "userdoc": {
    "kind": "user",
    "methods": {},
    "version": 1
  }
}